:020000040800F2
:10000000180700209D010008EB2A0008D7200008EF
:10001000E92A0008BF0800081531000800000000A8
:10002000000000000000000000000000EF2A0008AF
:10003000C108000800000000ED2A0008F12A0008AD
:10004000B7010008B7010008B7010008B7010008B0
:10005000B7010008B7010008B7010008B7010008A0
:10006000B7010008B7010008B7010008B701000890
:10007000B7010008B7010008B7010008B701000880
:10008000B7010008B7010008B7010008B701000870
:10009000B7010008B7010008B7010008B701000860
:1000A000B7010008B7010008B7010008B701000850
:1000B000992B0008B7010008A52B0008B70100081C
:1000C000B7010008B7010008B7010008B701000830
:1000D000B7010008B7010008B7010008E9300008BF
:1000E000B7010008B7010008B7010008B701000810
:1000F000B7010008B7010008B7010008B701000800
:10010000B7010008B7010008B7010008B7010008EF
:10011000B7010008B7010008B7010008B7010008DF
:10012000B7010008B7010008B7010008B7010008CF
:10013000B7010008B7010008B7010008B7010008BF
:10014000B7010008B7010008B7010008B7010008AF
:10015000B7010008B7010008B7010008B70100089F
:10016000B7010008B7010008B7010008B70100088F
:10017000B7010008B7010008B7010008000000003F
:10018000B7010008B7010008DFF80CD000F034FB1D
:1001900000480047754F00081807002006488047B0
:1001A00006480047FEE7FEE7FEE7FEE7FEE7FEE75C
:1001B000FEE7FEE7FEE7FEE7892B0008890100085D
:1001C0002DE9F05F0546002092469B46884606468C
:1001D000814640241BE0284641464746224600F01F
:1001E00055FA53465A46C01A914110D31146184643
:1001F000224600F03CFA2D1A67EB01084F462246D2
:100200000120002100F033FA17EB00094E41201EB7
:10021000A4F10104DFDC484631462A464346BDE8E6
:10022000F09F2DE9F0410024061B254671F10006E0
:1002300005DA01240027D0EB070067EB0101161E49
:1002400073F1000605DA0027D2EB0702012567EB00
:100250000303FFF7B5FF86460E4617469C46AC42A1
:1002600004D00025D0EB050E65EB010624B100207B
:10027000D2EB000760EB030C704631463A4663460A
:10028000BDE8F081D2B201E000F8012B491EFBD29B
:1002900070470022F6E710B513460A460446194691
:1002A000FFF7F0FF204610BD10B5002200E0521C01
:1002B000835C8C5CA34201D1002BF8D1D8B2E1B2AF
:1002C000401A10BD30B504460020034600E05B1C18
:1002D000934203D2E05CCD5C401BF8D030BD2DE9E9
:1002E000FE4F804681EA0300C00F0C46009021F0CB
:1002F000004123F00045B8EB0200A94105D2404679
:10030000214690461C460B46024623F0004010430F
:1003100047D0270DC7F30A00C3F30A510290401AD1
:10032000019040286BDAC3F3130040F4801B00985F
:10033000924620B10023D2EB030A63EB0B0B01982A
:100340005946C0F14002504600F091F906460D466C
:1003500050465946019A00F0A9F910EB0800614196
:10036000002487EA115284EAE7731A4340D0009AC6
:1003700062B3019A012A4FEA075215DC001B61EBB8
:1003800002014FF0004202EA0752CDE90042001C90
:1003900041F5801132462B4600F0E0F903B0BDE88C
:1003A000F08F40462146F9E7001B61EB0201001C7B
:1003B00041F5801300185B412018A2F5001747EBA8
:1003C000030140EAD570B6196D4111E06D084FEA9E
:1003D000360645EAC0754FEA0752001B61EB020181
:1003E000001C41F5801149084FEA300000195141C5
:1003F00032462B4603B0BDE8F04F00F0A0B900989C
:10040000012240000023D0EB020263EBE07300986E
:1004100021464FEAE074B8EB000061EB0401E9E724
:1004200083F000435BE781F0004158E72DE9FE4F80
:1004300081EA030404F0004421F0004100944FF0ED
:10044000000B23F0004350EA01045ED052EA03049B
:100450005BD0C3F30A54C1F30A552C44A4F2F3341D
:100460000194A0FB0254C1F3130141F48011C3F3C2
:10047000130343F4801301FB024400FB034E840A80
:10048000970A44EA815447EA8357A4FB0768029518
:100490008D0A05FB07854FEA932C04FB0C542705B6
:1004A000029D4FEA065847EA1637B5EB08056EEB92
:1004B000070C870E920E47EA811742EA8312A7FBC8
:1004C0000201B6EB0B0164EB00042B0D43EA0C3385
:1004D0005E1844EB1C50DA465146E7FB0201C5F3B7
:1004E00013044FEA0B3343EA14534FEA0432019CDE
:1004F00043EA0603A4F10C040294009CCDE900B485
:1005000000F02CF903B0BDE8F08F00200146F9E7B8
:100510002DE9F04D81EA030404F0004B21F0004581
:1005200014464FF0000A23F0004150EA050220D0A3
:1005300054EA01021DD0C5F30A570246C5F313035E
:10054000C1F31300C1F30A5640F4801543F480133D
:10055000A7EB0608101BD64608F2FD3873EB050022
:1005600002D308F1010801E092185B41B8F1000FD5
:1005700003DA00200146BDE8F08D00204FF4801121
:10058000064684460EE0171B73EB050705D3121BC6
:1005900063EB050306434CEA010C49084FEA3000BF
:1005A00092185B4150EA0107EDD152EA030012D0E4
:1005B00082EA040083EA0501084305D0101BAB4121
:1005C00006D20122002306E000224FF0004302E0A1
:1005D0006FF0010253101AEB06004CEB085110EBC0
:1005E0000A0041EB0B01BDE8F04D00F0A8B80EB5D4
:1005F000C10F80EAE0700844CA07002140F233438B
:100600008DE80E000A460B4600F0A8F803B000BDC6
:1006100000F0004230F000400AD0C10D01F56071D9
:10062000C0F3160042EA0151C20840071143704767
:1006300000200146704701F0004330B421F0004132
:1006400050EA010206D00A0DA2F56072C1F313014F
:10065000002A02DC30BC00207047440F44EAC10489
:10066000C100E01830BC00EBC25000F031B8202AC5
:1006700004DB203A00FA02F1002070479140C2F1F9
:10068000200320FA03F3194390407047202A04DB2B
:10069000203A21FA02F00021704721FA02F3D040FB
:1006A000C2F120029140084319467047202A06DB18
:1006B000CB17203A41FA02F043EAE07306E041FA30
:1006C00002F3D040C2F1200291400843194670471E
:1006D0000029A8BF7047401C490008BF20F0010056
:1006E000704710B4B0FA80FC00FA0CF050EA010434
:1006F00004BF10BC704749B1CCF1200421FA04F4C6
:1007000011FA0CF118BF012121430843A3EB0C019E
:10071000CB1D4FEA00614FEA102042BF002010BC01
:10072000704700EBC35010440029A4BF10BC7047B1
:10073000401C490008BF20F0010010BC704710B5F4
:10074000141E73F1000408DA401C41F100019218F4
:100750005B411A4301D120F0010010BD2DE9F04D9D
:1007600092469B4611B1B1FA81F202E0B0FA80F2F2
:1007700020329046FFF77BFF04460F4640EA0A000E
:1007800041EA0B0153465A46084313D0114653EA37
:10079000010019D0C8F140025046FFF777FF054627
:1007A0000E46504659464246FFF761FF084305D0C2
:1007B000012004E020463946BDE8F08D00200543C5
:1007C00046EAE0762C4337430A986305E40AA0EB37
:1007D00008000022FD0A44EA47540A3002D50020EE
:1007E0000146E9E7010510196941DDE908450019ED
:1007F0006941BDE8F04DA2E7064C074D06E0E06810
:1008000040F0010394E8070098471034AC42F6D357
:10081000FFF7BEFCD86F0008F86F00082DE9F04D17
:1008200000231A461B1A8A4103DB00200146BDE85B
:10083000F08DC1F30A52C1F3130141F480154FF05A
:10084000000BD10702D100186D41521E002704464B
:1008500040F2FF11384601EB620A3E4680460246EE
:1008600000204FF48011FFF711FFC2197141BB182E
:1008700046EB0100B4EB030C75EB000C04D3E41A57
:1008800065EB000517460E46241908F101006D417D
:1008900080463428E3DDF91946EB0600091BA84120
:1008A00003D24FF0FF32134601E0002213461BEB48
:1008B000070046EB0A51BDE8F04DFFF740BFFEE7E9
:1008C00070472DE9F0410446876D00F071F9064646
:1008D00094F835000025022806D08020606584F851
:1008E00034500120BDE8F0812068016821F0160134
:1008F00001602068416921F080014161206C08B9E4
:10090000A06C20B12068016821F008010160206816
:10091000016821F0010101600CE000F049F9801B41
:10092000052807D920206065032084F8350084F865
:100930003450D7E720680068C007EED194F85C1007
:100940003F208840B860012084F8350084F8345096
:100950000020C7E790F83510022903D080214165B7
:1009600001207047052180F835100068016821F0EA
:10097000010101600020704770B5044600F018F9CD
:100980000546601C02D004480078044400F010F9C9
:10099000401BA042FAD370BD5C0000202DE9F84F47
:1009A000DFF8BCA10022012503264FF00F090AF150
:1009B000040BAAF1040E00BF0B6805FA02F42340F1
:1009C000A34270D10F7907F00307012F01D0022F46
:1009D00016D187684FEA420806FA08FC27EA0C0796
:1009E000D1F80CC00CFA08FC4CEA070CC0F808C09F
:1009F0004768A7430C79C4F3001494403C43446017
:100A00000C79E443A4070AD0C4684FEA420C06FA02
:100A10000CF7BC438F6807FA0CF72743C7600C79C3
:100A200004F00304022C12D1D40800EB840CDCF88F
:100A300020405707FF0E09FA07F824EA0804D1F806
:100A4000108008FA07F848EA0408CCF82080046807
:100A50004FEA420C06FA0CF7BC430F7907F0030784
:100A600007FA0CF7274307604C6814F4403F70D036
:100A70003C4C276847F480472760246822F003072E
:100A800004F480440094384C07EB040CDCF808486C
:100A900097074FEA177809FA08F7BC43334FB84273
:100AA00002D1002724E054E0314FB84201D10127A0
:100AB0001EE0304FB84201D1022719E02E4FB84254
:100AC00001D1032714E02D4FB84201D104270FE0D4
:100AD0002B4FB84201D105270AE02A4FB84201D175
:100AE000062705E0284FB84201D1072700E0082774
:100AF00007FA08F72743CCF80878DAF80040574699
:100B0000D1F804C09C435FEACC2C00D51C433C6068
:100B1000DBF800405F46D1F804C09C435FEA8C2CB0
:100B200000D51C433C60DEF800407746D1F804C095
:100B30009C435FEA8C3C00D51C433C60084F083F57
:100B40003C68D1F804C09C435FEACC3C00D51C4310
:100B50003C60521C102AFFF42FAFBDE8F88F000054
:100B6000083C01404438024000300140000002408F
:100B70000004024000080240000C02400010024045
:100B80000014024000180240001C024000690840A6
:100B900000D001207047426921EA02030A4043EA7B
:100BA0000241816170470AB1816170470904FBE726
:100BB00001488068704700005C000020024881689E
:100BC00002781144816070475C0000200B4810B52A
:100BD000016841F400710160016841F480610160C5
:100BE000016841F480710160032000F06FF80F206C
:100BF00000F006F800F024F8002010BD003C024090
:100C000070B50D4D04464FF47A712878B1FBF0F0C1
:100C10000A490968B1FBF0F000F00AFB48B9102C52
:100C200007D200222146501E00F030F800206C60F0
:100C300070BD012070BD00005C0000206800002035
:100C40000A4808B5016841F480410160006800F479
:100C5000804000900548001F016841F0805101600C
:100C6000006800F08050009008BD00004438024049
:100C7000002809DB00F01F0201219140400980009B
:100C800000F1E020C0F8001170470000F0B40E4BF6
:100C90001B680C46C3F30223C3F10705042D00D9DA
:100CA0000425191D072901D2002300E0DB1E0126BF
:100CB00006FA05F1491E214099409E40761E1640D5
:100CC0003143F0BC02F050BA0CED00E0064900F0F0
:100CD000070208684FF6FF03184040EA0220034A63
:100CE00010430860704700000CED00E00000FA05BA
:100CF0002DE9F0470E46050065D0DFF81481D8F8DD
:100D00000000F7B200F00700B04207D288F8007088
:100D1000D8F8000000F00700B04254D128683D4CDC
:100D2000810712D5400703D5206840F4E0502060C9
:100D30002878000703D5206840F4604020602068D0
:100D4000A96820F0F000084320602878C0072DD063
:100D5000304968680839012812D0022813D00328C6
:100D600011D00968890700292DDA216821F00301D3
:100D700001432160FFF71CFF814641F2883A0EE0F3
:100D800009688903EFE709688901ECE7FFF710FFBD
:100D9000A0EB0901514502D90320BDE8F087206886
:100DA000696800F00C00B0EB810FEFD1D8F80010AB
:100DB000404601F00701B14207D90770006800F012
:100DC0000700B04201D00120E7E72878400705D5A9
:100DD0002068E96820F4E050084320602878000784
:100DE00006D52068296920F4604040EAC1002060EF
:100DF00000F038F82168084AC1F30311515CC8407B
:100E00000649086006480068FFF7FAFE0020C4E7BC
:100E1000003C0240083802403462000868000020AC
:100E2000600000200448054900680968044AC1F3CD
:100E30008221515CC8407047680000200838024099
:100E4000446200080448054900680968044AC1F37F
:100E50004231515CC84070476800002008380240A9
:100E600044620008154810B5006810F00C021448E0
:100E700013D04110042A0FD0082A0ED10F4C241F82
:100E80002268236802F03F025B0207D52068C0F3A6
:100E90008810A0FB010106E0084610BD2168C1F3DF
:100EA0008811A1FB00010023FFF78AF92168C1F333
:100EB0000141491C4900B0FBF1F010BD0838024067
:100EC0000024F4002DE9F84F04006ED02078DFF8FC
:100ED0004C93C007A9F104054AD009F10400016848
:100EE000C1F38101012908D00068C0F38100022804
:100EF0000AD1D9F80000400206D52868800337D50A
:100F000060680028E1D033E06068B0F5803F10D021
:100F1000B0F5A02F286810D020F480302860286811
:100F200020F4802028606068A8B1FFF741FE0646E3
:100F30000DE0286840F48030F4E740F48020286019
:100F4000F7E700BFFFF734FE801B642873D82868DA
:100F50008003F7D50CE0FFF72BFE064605E000BF47
:100F6000FFF726FE801B6428F0D828688003F7D49A
:100F70002078DFF8AC8280074FF0000A3ED5A74802
:100F8000001D016811F00C0F08D00068C0F381004B
:100F900002280BD1D9F80000400207D42868800746
:100FA00016D5E068012800D112E033E1E068B8B15D
:100FB0000120C8F80000FFF7FBFD064605E000BF72
:100FC000FFF7F6FD801B0228C0D828688007F7D5F8
:100FD0002868216920F0F80040EAC10028600DE08F
:100FE000C8F800A0FFF7E4FD064604E0FFF7E0FDC7
:100FF000801B02281FD828688007F7D420780007B4
:1010000022D5864F87486169703771B1012101602F
:10101000FFF7CEFD064604E0FFF7CAFD801B02285D
:1010200009D838688007F7D50EE0C0F800A0FFF7B0
:10103000BFFD064605E082E0FFF7BAFD801B0228EF
:101040007DD838688007F7D42078400768D5DFF866
:10105000CCB100270BF13C0BDBF80000C0000BD437
:10106000DBF8001041F08051CBF80010DBF80000F5
:10107000012700F0805000906B4E3068C00510D4FE
:10108000306840F480703060FFF792FD009005E01A
:10109000FFF78EFD0099401A022850D83068C0052D
:1010A000F6D55E4EA0686C3601280FD00528306852
:1010B00010D020F001003060306820F00400306073
:1010C000A068B8B1FFF774FD00900FE0306840F001
:1010D0000100F4E740F004003060F7E7FFF768FD37
:1010E0000099411A41F28830814266D83068800701
:1010F000F4D50EE0FFF75CFD009007E0FFF758FD28
:101100000099411A41F28830814256D830688007F0
:10111000F4D42FB1DBF8001021F08051CBF800108F
:10112000A069C8B33D49091D0968C1F381010229BD
:101130004AD00228504607D0C8F8600000E03CE0E2
:10114000FFF736FD04463BE04746C8F86000FFF76E
:101150002FFD064605E000BFFFF72AFD801B022891
:101160002BD828688001F7D4D4E907010843A16A85
:101170002E4A490802EB0141626A41EA82110843A2
:1011800094F82C1040EA0161C9F80010012038667B
:10119000FFF70EFD044606E03EE000BFFFF708FD46
:1011A000001B022809D828688001F7D534E000BF69
:1011B000FFF7FEFC001B022802D90320BDE8F88FD0
:1011C00028688001F4D427E00128F7D0D9F800007E
:1011D000E26900F4800191421CD1226A00F03F01D3
:1011E000914217D147F6C071626A0140B1EB821F8C
:1011F00010D1A26A4FF0FF3300F4403103EB5202EA
:10120000B1EB024F06D194F82C1000F07060B0EBF7
:10121000016F01D00120D1E70020CFE70438024060
:1012200000004742800E4742007000400000FFFF70
:1012300010B5401EB0F1807F01D3012010BD4FF0EA
:10124000E02460610F21601701F08EFF0020A06193
:1012500007202061002010BD7047704710B590F83E
:101260003C20012A22D0012280F83C20CA688C68E8
:1012700022F4407222434C6822F4806222430C68BC
:1012800022F4006222430C6922F4805222434C690A
:1012900022F400522243C969002322F480420A4307
:1012A00001684A6480F83C30002010BD022010BD67
:1012B00070B590F83C20012A32D0012480F83C40DF
:1012C000022280F83D2003685A689D6822F070066B
:1012D0000A6832435A60134B02689A4214D0B2F142
:1012E000804F11D0104B9A420ED0104B9A420BD027
:1012F0000F4B9A4208D00F4B9A4205D00E4B9A42A0
:1013000002D00E4B9A4204D1496825F0800319435C
:10131000916080F83D40002180F83C10084670BD87
:10132000022070BD000001400004004000080040A1
:10133000000C004000040140004001400018004043
:1013400010B5040003D094F83D0010B107E001206F
:1013500010BD002084F83C00204600F01FF8022059
:1013600084F83D00211D206801F022FC012084F852
:10137000460084F83E0084F83F0084F8400084F87A
:10138000410084F8420084F8430084F8440084F863
:10139000450084F83D00002010BD000008B501683C
:1013A0001748814208D11748016841F001010160E6
:1013B000006800F001000EE01248001FB1F1804FFC
:1013C0000BD0114A914207D1016841F0020101603E
:1013D000006800F00200009008BD016841F00101C2
:1013E00001600068002200F00100009001211C2033
:1013F000FFF74CFCBDE808401C20FFF739BC00009B
:1014000000000140443802400004004090F83D10C4
:10141000012901D001207047022180F83D100168A8
:10142000CA6842F00102CA6000681149884214D0BB
:10143000B0F1804F11D00F4988420ED00E4988423A
:101440000BD00E49884208D00D49884205D00D497D
:10145000884202D00C49884204D1816801F007011A
:10146000062903D0016841F00101016000207047A6
:10147000000001400004004000080040000C004053
:1014800000040140004001400018004070B50446CF
:1014900090F83C000025012817D0012684F83C6014
:1014A000022084F83D002068826822F0770222F44E
:1014B0007F4282600868502838D00DDC20284FD049
:1014C00005DC90B3102811D14AE0022070BD30280D
:1014D00046D040280AD13BE060282FD070280DD09C
:1014E000B0F5805F03D0B0F5005F12D0012584F81D
:1014F0003D60002084F83C00284670BDCB68D1E9EF
:101500000121206801F0C5FB2068816841F0770166
:1015100009E0CB68D1E90121206801F0BAFB20681D
:10152000816841F480418160E1E719E0CA68496857
:10153000206801F083FC5021206806E0CA684968F1
:10154000206801F08CFC6021206801F0ACFBCEE744
:10155000CA684968206801F071FC40212068F4E7FE
:10156000226801461046F0E72DE9F0410D460400DF
:1015700003D094F83D0018B108E00120BDE8F081E7
:10158000002084F83C00204600F040F8022084F857
:101590003D002068816844F2070291438160211D6B
:1015A000206801F005FB226890689169166A2B6833
:1015B000AF69034340F20330814341EA0721A86841
:1015C000EF6908434FF6FC418843E96840EA072089
:1015D000014328692F6A000140EA0730084369681F
:1015E0006D6926F0AA0646EA05152943936022682C
:1015F000906154F8460B0162012004F81F09E07560
:101600002076E0762077A0750020B7E710B586B089
:10161000044614216846FEF73CFE2268264C002151
:1016200026480223A24226D1244A1032146844F0EC
:1016300004041460126802F004020592026842F089
:1016400008020260006800F0080005904FF4405066
:101650000090CDE90131CDE9031369461848FFF741
:101660009DF9002211461E20FFF710FB1E20FFF7F8
:10167000FFFA06B010BD134CA242FAD10F4A143241
:10168000146844F002041460126802F00202059229
:10169000026842F004020260006800F00400059055
:1016A000C0200090CDE901310320CDE90310694647
:1016B0000548FFF773F9DCE70008004030380240C6
:1016C000000C0240000401400008024070B590F890
:1016D0003E60044690F83F5090F8423090F8432026
:1016E000022021B104290ED0012E1BD114E0012EBD
:1016F00018D1012B16D184F83E0084F84200012253
:101700000021206820E0012D0CD1012A0AD184F8A3
:101710003F0084F8430014E0012D03D1012B01D1D7
:10172000012A01D0012070BD84F83E0084F83F00FA
:1017300084F8420084F8430001220021206801F06F
:101740009BFA01220421206801F096FA20680168C2
:1017500041F001010160002070BD704770B5044682
:10176000006801694FF00005C943890715D4C168B5
:10177000C943890711D4E91E01610120207720683F
:1017800080698007204602D0FFF7E7FF04E000F001
:10179000EFF8204600F081F9257720680169C943F8
:1017A000490717D4C168C943490713D46FF004012E
:1017B0000161022020772068806910F4407F204674
:1017C00002D0FFF7CAFF04E000F0D2F8204600F094
:1017D00064F9257720680169C943090716D4C168EF
:1017E000C943090712D46FF0080101610420207772
:1017F0002068C0698007204602D0FFF7AEFF04E0F2
:1018000000F0B6F8204600F048F925772068016915
:10181000C943C90617D4C168C943C90613D46FF0B8
:1018200010010161082020772068C06910F4407F12
:10183000204602D0FFF791FF04E000F099F820461F
:1018400000F02BF9257720680169C943C90708D141
:10185000C168C943C90704D1891E0161204600F04F
:1018600081F920680169C943090609D4C168C943DF
:10187000090605D46FF0800101612046FFF7ECFCFA
:1018800020680169C943490609D4C168C9434906AA
:1018900005D46FF040010161204600F0F1F92068A5
:1018A0000169C94389060BD4C168C943890607D4B5
:1018B0006FF0200101612046BDE87040FFF7CDBC0C
:1018C00070BD000030B587B0044614216846FEF7AD
:1018D000E0FC214A2168002420480225914212D1CF
:1018E000016841F0100101600068694600F01000D5
:1018F00005904FF4D4400090CDE901540120CDE98A
:101900000340174824E0174A914223D1016841F06F
:1019100001010160016801F001010591016841F0D8
:10192000020101600068694600F002000590C020D5
:101930000090CDE901540C48CDE90345FFF72EF89E
:1019400003200090CDE9015469460848CDE90345DC
:10195000FFF724F807B030BD0000014030380240E6
:101960000010024000040040000002400004024059
:10197000704770B5044690F83C0000260D460128DB
:101980000FD0012084F83C006AB1042A1DD0082A37
:101990002FD00C2A3FD00126002084F83C0030468E
:1019A00070BD022070BD206801F086F92068816951
:1019B00041F0080181612068816921F004018161A1
:1019C000206881692A69114311E0206801F0A4F9B7
:1019D0002068816941F4006181612068816921F496
:1019E00080618161206881692A6941EA02218161FF
:1019F000D2E7206801F0C6F92068C16941F008010A
:101A0000C1612068C16921F00401C1612068C16918
:101A10002A69114311E0206801F0E8F92068C169E2
:101A200041F40061C1612068C16921F48061C16134
:101A30002068C1692A6941EA0221C161ACE710B599
:101A4000040003D094F83D0010B107E0012010BD60
:101A5000002084F83C00204600F01EF8022084F8A4
:101A60003D00211D206801F0A3F8012084F8460004
:101A700084F83E0084F83F0084F8400084F8410078
:101A800084F8420084F8430084F8440084F8450058
:101A900084F83D00002010BD7047704710B5044623
:101AA000022249B104290ED0082913D094F841002C
:101AB000012816D0012010BD94F83E000128F9D16C
:101AC00084F83E200FE094F83F000128F2D184F81A
:101AD0003F2008E094F840000128EBD184F8402032
:101AE00001E084F841200122206801F0C5F8164980
:101AF0002068164A884201D0904203D1436C43F4D7
:101B0000004343642068884213D0B0F1804F10D066
:101B10000F4988420DD00F4988420AD00E498842A9
:101B200007D0904205D00D49884202D00C49884226
:101B300004D1816801F00701062903D0016841F052
:101B400001010160002010BD0000014000040140BF
:101B50000004004000080040000C0040004001402C
:101B6000001800402DE9F041414988427DD1414CA7
:101B700004F14802A069111F401CA061081F03F076
:101B8000A3FA70B900F088FC04F10E02E082911E05
:101B9000881E00F04FFC04F11402911E881E00F014
:101BA00062FC334890300068416A09B2E161304913
:101BB000D8310A68526A12B2524200252262456246
:101BC00008684562B4F91000B42700EE100A4FF41B
:101BD000C8762846F8EEC00A94ED110A02F030FAF1
:101BE000E064D4E9070104F0B1FA20654042E16CF9
:101BF00000EB800001EB80001D496065483900283A
:101C000012DDB42801DA676502E0B04200DD6665E6
:101C100008684563086805640A68606D9063E26B54
:101C20000968801AC86314E06FF0B302904202DCC6
:101C3000114A904200DA6265086885630868C563E6
:101C4000606D0B6842425A63E26B0968104440427F
:101C500008646078401CC0B260700A2805D94FF44F
:101C600000510648FEF797FF6570BDE8F08100005F
:101C7000A00100200000002070FEFFFF00180240BD
:101C800070477047704710F83D1F40780843704711
:101C9000F8B5016804460868CA684B6910F00F0F70
:101CA0004FF0000559D003F0010602F49077374356
:101CB00065D0C10705D0D10503D5216C41F00101E4
:101CC0002164410705D5D90703D0216C41F00201F9
:101CD0002164810705D5D90703D0216C41F00401A7
:101CE0002164010707D502F02001314303D0216CA4
:101CF00041F008012164216C00293AD0800604D506
:101D0000900602D5204601F0EBF820684069216C6E
:101D1000C0F38010090700D460B3204601F0B9F881
:101D200020684069400621D52068143050E8001F23
:101D300021F0400140E80012002AF5D1A06BA8B1C3
:101D40006C490165A06BFEF705FE002811D0A06B61
:101D5000016D01B0BDE8F040084783060FD593063A
:101D60000DD52046BDE8F84001F0BAB82046FFF78F
:101D700089FFF8BD2046FFF785FF2564F8BD266B77
:101D80002023012E79D1C60677D5D60675D50868E9
:101D9000486800904869400640D5A16B08684068D3
:101DA0000004000CEAD0A28D8242E7D9E085C86920
:101DB000B0F5807F2DD020680C3050E8001F21F452
:101DC000807140E80012002AF5D12068143050E8F4
:101DD000001F21F0010140E80012002AF5D120681F
:101DE000143050E8001F21F0400140E80012002AA2
:101DF000F5D184F83E30256320680C3050E8001F90
:101E000021F0100140E80012002AF5D1A06BFEF786
:101E100058FDA08DE18D401A81B229E0A08DE18DA1
:101E2000401A81B2E08D0028A8D00029A6D02068F1
:101E30000C3050E8002F22F4907240E80026002E6B
:101E4000F5D12068143050E8002F22F0010240E85C
:101E50000026002EF5D184F83E30256320680C3032
:101E600050E8002F22F0100240E80023002BF5D1AB
:101E70002046FFF706FFF8BDFFE705062BD5150640
:101E800029D594F83D002128F5D1A068B0F5805FF0
:101E900001D12069B0B1206A411C2162216800781B
:101EA0004860E08C401E0004000CE084E3D1206810
:101EB000C16821F08001C1602068C16841F0400123
:101EC000C160D8E7206A0088C0F308004860206A33
:101ED000801C2062E5E74006CDD55006CBD5CA6808
:101EE000204622F04002CA6084F83D3000F0F2F84B
:101EF000C1E70000832E000870B5040004D094F8F8
:101F00003D00002510B106E0012070BD84F83C5072
:101F1000204600F023F8242084F83D002068C168A2
:101F200021F40051C160204601F03AF820680169AF
:101F300021F4904101612068416921F02A01416149
:101F40002068C16841F40051C1602564202084F8F4
:101F50003D0084F83E00002070BD000010B5006810
:101F60001A4986B088422FD11948016841F004010E
:101F70000160006800F00400059015481030016809
:101F800041F4802101600068012100F48020059067
:101F90004FF4806000900220CDE9010103900720FA
:101FA0000C4C049069462046FEF7F8FCE0140090C3
:101FB00069462046FEF7F2FC2720FEF759FE032271
:101FC00011462720FEF762FE06B010BD0048004013
:101FD000303802400008024090F83E30202B0ED1ED
:101FE00059B152B190F83C30012B08D0012380F850
:101FF0003C300023036301F059B8012070470220F0
:102000007047000070B500682549884210D1254806
:10201000841F017853290CD0234E45290BD02078FA
:10202000421E632A04D83218401C02F8011C20709A
:1020300070BD0120FBE71C491CA0FEF735F9002507
:10204000A0B119491BA0FEF72FF990B116491BA0AA
:10205000FEF72AF988B114491AA0FEF725F978B1DC
:1020600011491AA0FEF720F968B10FE0A06B801F9C
:1020700001E0A06B801DA06308E0A563E56305E0B7
:10208000E06B143001E0E06B1438E06325702078D9
:102090003554401CC0B220702028F8D3257070BD84
:1020A0000048004006000020B0000020666F7277F4
:1020B000617264006261636B0000000073746F7092
:1020C000000000006C6566740000000072696768BB
:1020D000740000007047FEE710B5124C002240214A
:1020E0002046FEF760FD206820F440402060206814
:1020F00040F480402060002280212046FEF753FDFE
:10210000022001F0DCFF012240212046FEF74BFDBA
:10211000022001F0D4FF20460022BDE810404021FB
:10212000FEF741BD00040240104810B5016886B0BA
:1021300041F00201016000680D4C00F002000590C2
:10214000C020009011200190022003906946204693
:10215000FEF724FC012240212046FEF724FD012247
:1021600080212046FEF71FFD06B010BD303802402A
:102170000004024010B5124C002240212046FEF718
:1021800012FD206820F440402060206840F4804028
:102190002060012280212046FEF705FD022001F08B
:1021A0008EFF012240212046FEF7FDFC022001F0B7
:1021B00086FF20460022BDE810404021FEF7F3BC18
:1021C000000402402DE9F041174C07460025206825
:1021D00020F440402060206820602E4600224021EC
:1021E0002046FEF7E0FC022001F069FF01224021B9
:1021F0002046FEF7D8FC6806050E80212046FEF733
:10220000C5FC08B16D1CEDB2012001F058FF761C31
:10221000F6B2082EE2D327B1FFF75EFF2846BDE8ED
:10222000F081FFF7A7FFF9E70004024070B5194EEF
:1022300005463046316821F440413160316841F44F
:102240008041316000224021FEF7ADFC00242806C9
:1022500001D5012200E0002280213046FEF7A3FCD8
:102260006806050E022001F02AFF012240213046B7
:10227000FEF799FC022001F022FF002240213046A7
:10228000FEF791FC022001F01AFF641CE4B2082C56
:10229000DDD370BD0004024010B5124C206820F45C
:1022A00040402060206840F480402060012280216E
:1022B0002046FEF778FC012240212046FEF773FC01
:1022C000042001F0FCFE002280212046FEF76BFC7A
:1022D000042001F0F4FE20460022BDE81040402119
:1022E000FEF761BC0004024010B5124C206820F4D7
:1022F00040402060206840F480402060002240215F
:102300002046FEF750FC002280212046FEF74BFCC1
:10231000042001F0D4FE012240212046FEF743FCB8
:10232000012280212046FEF73EFCBDE8104004203B
:1023300001F0C5BE0004024070B5174C00252068AE
:1023400020F4404020602068206001228021204647
:10235000FEF729FC012001F0B2FE012240212046B7
:10236000FEF721FC012001F0AAFE07E06D1CEDB292
:10237000FA2D03D9FFF7B8FF012070BD8021204658
:10238000FEF704FC0028F1D1002240212046FEF790
:102390000AFC002070BD0000000402400C4800B59B
:1023A000026887B0002142F020020260006800F05D
:1023B000200005904FF47070CDE9000101200290DB
:1023C0000320039069460348FEF7E8FA07B000BD12
:1023D0003038024000140240144810B5016886B03D
:1023E00041F0400101600068114C00F04000059090
:1023F0004FF4604000900120019002900320039070
:1024000069462046FEF7CAFA012251032046FEF72C
:10241000CAFB012291032046FEF7C5FB0122D1032E
:102420002046FEF7C0FB06B010BD00003038024069
:10243000001802407CB514460D4606466B4606223F
:102440003B21682000F0C0F800280BD1BDF8001037
:1024500049BA3180BDF8021049BA2980BDF804108C
:1024600049BA21807CBD7CB514460D4606466B46B4
:1024700006224321682000F0A7F800280BD1BDF800
:10248000001049BA3180BDF8021049BA2980BDF860
:10249000041049BA21807CBD08B56B460222412157
:1024A000682000F091F8BDF8000040BA00B2FEF7D5
:1024B0009EF89FED0D1B53EC112BFEF729F89FEDB5
:1024C0000C1B53EC112BFDF70AFFFEF7B4F800EEDE
:1024D000100ADFED090A20EE200ABDEEC00A10EE58
:1024E000100A00B208BD0000000000000040754066
:1024F000A4703D0AD74342400000C84210B5FFF720
:1025000013FE80216B2000F0CEF8642001F0CCFD9A
:1025100000216B2000F0C7F8032000F090F80020A5
:1025200000F088F8322000F0A7F80021382000F0F1
:10253000BAF800216A2000F0B6F80021232000F04C
:10254000B2F88021372000F0AEF8752000F01EF8B8
:102550000B4C014620700BA000F0DEFD20786828AF
:1025600001D0012010BD01216B2000F09CF800215A
:102570006C2000F098F8322000F07EF8002010BDAA
:102580006C00002025780D0A0000000010B50446FC
:10259000FFF782FED020FFF749FEFFF7CDFE204671
:1025A000FFF744FEFFF7C8FEFFF776FED120FFF7E6
:1025B0003DFEFFF7C1FE0020FFF704FE0446FFF7D3
:1025C00093FE204610BD00002DE9F0411D46144643
:1025D0000F460646FFF760FE7006000EFFF726FE68
:1025E000FFF7AAFE20B1FFF77FFE0120BDE8F081D2
:1025F0003846FFF71BFEFFF79FFEFFF74DFE012059
:1026000000EB4600C0B2FFF711FEFFF795FE09E0B0
:10261000012C0DD05FF00100FFF7D4FD641E05F81A
:10262000010BE4B2002CF3D1FFF75EFE0020DDE7E2
:102630000020F1E7C006010E1C2000F034B8C006EF
:10264000010E1B2000F02FB8BC2801D3012110E09F
:10265000622801D302210CE02A2801D3032108E0DB
:10266000142801D3042104E00A2801D3052100E045
:1026700006211A2000F017B810B504464FF47A70FE
:10268000844201D9044602E0042C00D20424B0FBA9
:10269000F4F0401EC1B2192000F005F86008BDE852
:1026A0001040FFF7D1BF70B50C460546FFF7F4FDAB
:1026B000D020FFF7BBFDFFF73FFE50B92846FFF7DC
:1026C000B5FDFFF739FE2046FFF7B0FDFFF734FEFA
:1026D00018B1FFF709FE012070BDFFF705FE0020CD
:1026E00070BD2DE9F0411E4615460F460446FFF722
:1026F000D3FD6006000EFFF799FDFFF71DFE60B9E0
:102700003846FFF793FDFFF717FE00240CE0305D1D
:10271000FFF78CFDFFF710FE20B1FFF7E5FD01206C
:10272000BDE8F081641CE4B2AC42F0D3FFF7DCFDFD
:102730000020F5E770B586B014216846FDF7A9FDC5
:1027400025480024016841F080010160016801F022
:1027500080010591016841F001010160016801F00B
:1027600001010591016841F002010160016801F079
:1027700002010591016841F010010160016801F05A
:1027800010010591016841F008010160016801F044
:1027900008010591016841F004010160016801F040
:1027A00004010591016841F04001016000680122C7
:1027B00000F04000094E5503059029463046FEF7CB
:1027C000F2F901200095CDE90104694630460394F1
:1027D000FEF7E4F806B070BD303802400018024041
:1027E00010B596B000240F94109411941294139481
:1027F0001C2168461494FDF74CFD202107A8FDF725
:1028000048FD354833490160A721C0E9011440F271
:10281000F311C0E903148021C0E90541FEF790FDE2
:1028200008B172B6FEE74FF480500F900FA92A4806
:10283000FEF72CFE08B172B6FEE72748FFF7FFF857
:1028400008B172B6FEE7139413A923481494FEF757
:102850002FFD08B172B6FEE76020CDE900040294B6
:10286000039404940594002269461B480694FFF7DC
:1028700080F808B172B6FEE7042269461648FFF7F1
:1028800078F808B172B6FEE7082269461248FFF7E9
:1028900070F808B172B6FEE70C2269460E48FFF7E1
:1028A00068F808B172B6FEE70794089409944FF4EB
:1028B00000500A94CDE90B4007A907480E94FEF793
:1028C000CDFC08B172B6FEE70348FEF7FBFF16B079
:1028D00010BD0000000001405801002010B586B076
:1028E00000241748009401940294039404944FF038
:1028F00080410594016040F24731C0E9011440F283
:10290000F311C0E903148461FEF71AFD08B172B631
:10291000FEE74FF48050009069460948FEF7B6FD87
:1029200008B172B6FEE7049404A905480594FEF7C1
:10293000BFFC002801D072B6FEE706B010BD000053
:10294000A001002010B58EB00024079408940994CB
:102950000A940B941C2168460C94FDF79AFC2B48B2
:102960002949016040F24731C0E9011440F2CF71BA
:10297000C0E9031480218161FEF7E2FC08B172B660
:10298000FEE74FF48050079007A92048FEF77EFD30
:1029900008B172B6FEE71D48FFF751F808B172B6EC
:1029A000FEE70B940BA919480C94FEF781FC08B1C3
:1029B00072B6FEE76020CDE9000402940022694669
:1029C00012480494FEF7D5FF08B172B6FEE7042260
:1029D00069460E48FEF7CDFF08B172B6FEE7082241
:1029E00069460A48FEF7C5FF08B172B6FEE70C2239
:1029F00069460648FEF7BDFF08B172B6FEE7034818
:102A0000FEF760FF0EB010BD00040040E80100209A
:102A100010B58CB024216846FDF73BFC0024164815
:102A2000099414490A94C0E900144FF6FF71C0E9F3
:102A30000241046184610320CDE900040120CDE955
:102A400002040494CDE90540079469460A480894B5
:102A5000FEF78AFD08B172B6FEE7099409A9064897
:102A60000A94FEF725FC002801D072B6FEE70CB0F0
:102A700010BD0000000800403002002010B58CB0EE
:102A800024216846FDF705FC0024164809941449E2
:102A90000A94C0E900144FF6FF71C0E902410461D5
:102AA000446184610320CDE900040120CDE90204E2
:102AB0000494CDE90540079469460A480894FEF756
:102AC00053FD08B172B6FEE7099409A905480A94B6
:102AD000FEF7EEFB002801D072B6FEE70CB010BD89
:102AE0000004014078020020FEE7FEE770477047CF
:102AF000FEF764B830B593B030216846FDF7C9FBE6
:102B000014210CA8FDF7C5FB1D480025016841F004
:102B100080510160006800F08050119019480168F0
:102B200041F4804101600068022400F4804011906B
:102B300001200090000401908001CDE9064008AA20
:102B40000420A82182E813000B906846FEF7BAF92A
:102B500008B172B6FEE70CA90F2081E831004FF4EE
:102B6000A0500F904FF48050109005210CA8FEF754
:102B7000BFF8002801D072B6FEE713B030BD0000E8
:102B800040380240007000400248016841F4700182
:102B90000160704788ED00E00148FEF7DFBD0000EE
:102BA000A00100200148FEF7D9BD0000300200203E
:102BB000F0B50268254C264D264E274F274B4FF087
:102BC000804CA04209D0604507D0A84205D0B04251
:102BD00003D0B84201D0984204D122F0700E4A6866
:102BE00042EA0E02A0421BD0604519D0A84217D07D
:102BF000B04215D0B84213D0984211D0184DA84217
:102C00000ED0184DA8420BD0174DA84208D0174D32
:102C1000A84205D0164DA84202D0164DA84203D1B5
:102C200022F44075CA682A434D6922F080022A4383
:102C300002608A68C2620A688262A04201D0984239
:102C400001D10969016301214161F0BD000001402A
:102C50000004004000080040000C00400004014057
:102C6000004001400044014000480140001800407D
:102C7000001C00400020004010B501F01F0301219E
:102C8000046A99408C430462016A9A4011430162CC
:102C900010BD10B5846842EA032224F47F440A433D
:102CA0002243826010BD826822F070020A4342F023
:102CB0000701816070470000F0B5026A22F001024E
:102CC0000262036A42688469124E24F073050C683C
:102CD0002C4323F002058B682B430D4DA84201D0F5
:102CE000B04205D123F00807CB683B4323F004032F
:102CF000A84201D0B04205D14D6922F4407215437B
:102D00008A692A4342608461496841630362F0BD75
:102D10000000014000040140F0B5026A22F01002F8
:102D20000262026A436884690D6824F4E64444EA56
:102D300005248D6822F0200242EA05120F4D104E44
:102D4000A84201D0B04206D1CF6822F0800242EA08
:102D5000071222F04002A84201D0B04207D14D69CB
:102D600023F4406343EA85038D6943EA85034360A6
:102D70008461496881630262F0BD00000000014087
:102D800000040140F0B5026A22F480720262026A15
:102D90004368C46922F4007224F073050C68124E73
:102DA0002C438D6842EA05220E4DA84201D0B04264
:102DB00006D1CF6822F4006242EA072222F4806240
:102DC000A84201D0B04207D14D6923F4405343EAF1
:102DD00005138D6943EA05134360C4614968C16303
:102DE0000262F0BD000001400004014030B5026AFB
:102DF00022F480520262046A4268C3690D6823F4B7
:102E0000E64343EA05238D6824F4005444EA05347C
:102E1000084DA84202D0084DA84204D14D6922F4C1
:102E2000804242EA85124260C361496801640462DB
:102E300030BD0000000001400004014010B5036AED
:102E4000046A24F001040462846924F0F00444EA72
:102E5000021423F00A020A438461026210BD10B515
:102E6000036A23F0100303628369046A23F4704346
:102E700043EA023224F0A00343EA011182610162B5
:102E800010BD10B5806B0021C185C184FEF7FAFE2C
:102E900010BD01680C3151E8002F22F4907241E816
:102EA0000023002BF5D10168143151E8002F22F0E6
:102EB000010241E80023002BF5D1016B012909D162
:102EC00001680C3151E8002F22F0100241E8002384
:102ED000002BF5D1202180F83E10002101637047BE
:102EE00008B590F83E10222901D0022008BD826862
:102EF0004FF480539A4201D1016921B1816A9A420B
:102F00001BD04AB10AE00268816A5268C2F3080223
:102F10000A80816A891C08E0026972B102685268FD
:102F200002F07F020A70816A491C8162C18D491ECC
:102F30000904090CC18503D019E002685268F1E761
:102F40000168CA6822F02002CA600168CA6822F4D7
:102F50008072CA6001684A6922F001024A61202138
:102F600080F83E10016B012903D0FFF74BF80020D9
:102F700008BD0021016301680C3151E8002F22F0E7
:102F8000100241E80023002BF5D101680A68D2063F
:102F900002D50A6849680091818DFEF772FEE6E766
:102FA00070B5044600680169E26821F4405111439C
:102FB00001612169A068E26908436169114308431E
:102FC0002168CA6849F20C639A430243CA602068C8
:102FD0004169A26921F4407111434161314920687E
:102FE000884202D03049884202D1FDF72BFF01E030
:102FF000FDF718FFE2690023192164253226B2F596
:10300000004F626828D0A0FB0101930F9200FDF7EA
:10301000D7F80146B0FBF5F06FF01802504301EB12
:10302000800006EB0010B0FBF5F000F0F002B1FB01
:10303000F5F002EB0012B1FBF5F06FF01803584306
:1030400001EB800006EB0010B0FBF5F000F00F0084
:1030500021681044886070BDA0FB010192185B419B
:10306000FDF7AEF80146B0FBF5F00201B1FBF5F05B
:103070006FF01803584301EB800006EBC000B0FB73
:10308000F5F000F0F80002EB4002B1FBF5F0584318
:1030900001EB800006EBC000B0FBF5F000F007008C
:1030A000D6E70000001001400014014081628285D3
:1030B000C28500210164222280F83E2080F83C1065
:1030C000016921B10168CA6842F48072CA6001686E
:1030D0004A6942F001024A610068C16841F020017A
:1030E000C16000207047000010B50848FEF7D0FD11
:1030F0000648FEF7C8FD2028FAD1012204490348FA
:10310000FEF76AFF0028F8D110BD0000140100206E
:1031100006000020FEE700000FB4054B10B503A920
:10312000044A029800F00AFD10BC5DF814FB000090
:10313000554A0008A800002003B4019841000098F7
:1031400050EAC12018BF04204A0D18BF40F001000A
:1031500040F2FF72B2EB515F08BF40F0020001285D
:1031600008BF052002B070470907090E002804DBDC
:1031700000F1E02080F80014704700F00F0000F12B
:10318000E02080F8141D704770B5C1482DED020B8A
:103190002DED0E8B82B0119D25F000449FEDBEDB1E
:1031A0009FEDBFEB84423EDBA4F140511098A1F1AA
:1031B0007F6108430FD0BC48844202DC28D11098BC
:1031C00030B39DED100B02B0BDEC0E8B02B0BDE82C
:1031D000704000F069BC9DED100B53EC1D2B51ECC1
:1031E000100BFDF723F99DED100B41EC180B53EC80
:1031F0001E2B51EC100BFDF719F953EC182BFDF7B2
:103200006EF841EC100B02B0BDEC0E8B02B070BD3D
:10321000012000F08DFC02B0BDEC0E8B02B0BDE8C9
:10322000704000F055BCA1489FEDA18B844256DA56
:103230009DED100BB4F1795F0ADA51EC100BFFF73A
:103240007BFF042808BF00F053FC9DED100BDAE76C
:1032500053EC102B51EC100BFDF7E8F841EC190B77
:1032600095480621B0EE490AF0EE690A784400F06C
:103270009FFB53EC192B51EC100BFDF7D7F841ECE9
:103280001A0B8E48B0EE490AF0EE690A0421784420
:1032900000F08EFB53EC192B51EC100BFDF7C6F828
:1032A00053EC182BFDF71BF841EC100B51EC1A0BEB
:1032B00053EC102BFDF72CF9CDE900019DED000B2F
:1032C00053EC102B9DED100B51EC100BFDF7AEF8ED
:1032D0009DED101B53EC112BFDF701F8D2E09DED95
:1032E000100B51EC100B01F0A9FB53EC182BFDF760
:1032F0009AF89FED730BCDE9000153EC102B9DED77
:10330000000B51EC100BFDF791F841EC190B6E48D6
:103310000621B0EE490AF0EE690A784400F048FB55
:1033200053EC192B51EC100BFDF780F841EC1B0B03
:103330006648B0EE490AF0EE690A0421784400F0CC
:1033400037FB53EC192B51EC100BFDF76FF853ECD6
:10335000182BFCF7C4FF41EC1C0B51EC190B02F0CD
:10336000A1FE41EC180B5A489FED5BABA04222DC5A
:1033700053EC1C2B51EC1B0BFDF7CAF8CDE90001F7
:103380009DED000B51EC180B53EC102BFDF74EF894
:1033900053EC182BFCF7A3FF53EC1A2BFDF746F860
:1033A00053EC1D2BFDF73CF853EC1E2BFDF73BF8BF
:1033B00041EC100B5FE08DED008B002000909DED47
:1033C000000B51EC180B53EC102BFCF788FF9DED14
:1033D000000B41EC1E0B53EC102B51EC100BFDF7C6
:1033E00025F853EC192BFDF71EF853EC1E2BFDF7B7
:1033F0008FF841EC190B53EC1C2B51EC1B0BFDF718
:1034000087F841EC1B0B53EC1A2B51EC190BFDF711
:103410000DF853EC1D2BFDF706F841EC190B53EC9E
:103420001A2B51EC180BFDF701F853EC1B2BFCF792
:10343000FDFF53EC192BFCF7F3FF9DED000B41EC66
:10344000180B53EC1A2B51EC100BFCF7EFFF9FED10
:10345000249B53EC192BFCF7E6FF41EC100B51ECCD
:10346000180B53EC102BFCF7DBFF53EC192BFCF77C
:10347000DAFF41EC100B002D3FF7C5AE51EC100BFD
:1034800081F0004141EC100BBDE60000000000009F
:103490000000F03F00000000075C143326A6913CBA
:1034A000182D4454FB21F93F0000F07F0000E03F5D
:1034B000000000000000F03F283C0000363C000007
:1034C000000000000000E03F7A3B0000883B000065
:1034D0003333EF3F00000000000000000000004018
:1034E000182D4454FB21E93F70B59B482DED020B8C
:1034F0002DED068B079D25F00044A04218DC97486F
:10350000844202DC0AD1069840B19DED060BBDEC69
:10351000068B02B0BDE8704000F0C6BA002DCCBFEB
:103520009FED8F0B9FED900BBDEC068B02B070BD35
:103530008F48A04215DD8F48A042D8BF4FF0FF341E
:1035400058DD9DED060B51EC100BFFF7F5FD04283F
:1035500008BF00F0CDFA9DED060BBDEC068B02B066
:1035600070BD9DED060B51EC100B01F067FACDE933
:10357000060181489FED828BA0423CDD8248A0423B
:103580001FDD00249FED82AB9DED060B53EC1A2B43
:1035900051EC100BFCF7A3FE9DED060B41EC190B53
:1035A00053EC1A2B51EC100BFCF740FF53EC182B8B
:1035B000FCF736FF53EC192BFCF7AAFFCDE9060107
:1035C00049E09DED060B012453EC182B51EC100B38
:1035D000FCF785FE9DED060B41EC190B53EC182B07
:1035E00051EC100BFCF71CFF53EC192BFCF790FF70
:1035F000CDE906012FE06848A0421FDD02249FEDBF
:10360000689B9DED060B53EC192B51EC100BFCF74E
:103610000DFF53EC182BFCF762FE9DED060B41EC01
:10362000180B53EC192B51EC100BFCF7F9FE53EC73
:10363000182BFCF76DFFCDE906010CE09DED060BA4
:10364000032453EC102B9FED580B51EC100BFCF79F
:103650005FFFCDE906019DED060B53EC102B51ECFD
:10366000100BFCF7E3FE41EC180B53EC182BFCF7A6
:10367000DDFE41EC190B4E480621B0EE490AF0EE92
:10368000690A784400F094F953EC182B51EC100BB4
:10369000FCF7CCFE41EC180B4648B0EE490AF0EEC0
:1036A000690A0521784400F083F953EC192B51EC99
:1036B000100BFCF7BBFE41EC100B51EC180B53EC5C
:1036C000102B002C0EDAFCF70AFE9DED061B53ECC6
:1036D000112BFCF7ABFE9DED061B53EC112BFCF7F9
:1036E000A2FE35E0FCF7FBFD9DED061B53EC112B14
:1036F000FCF79CFE41EC100B2F48784400EBC40013
:1037000090ED001B51EC100B53EC112BFCF788FED5
:103710009DED061B53EC112BFCF782FE41EC100BC8
:103720002648784400EBC40090ED001B51EC100BD0
:1037300053EC112BFCF777FE41EC100B002DA2BFD0
:10374000BDEC068B02B070BD51EC100B81F0004156
:1037500041EC100B01E70000000010440000F07F76
:10376000182D4454FB21F93F182D4454FB21F9BF77
:103770000000DC3F0000203E0000F33F000000009E
:10378000000000000000F03F0000E63F00000000E5
:103790000000000000000040008003400000000026
:1037A000000000000000F83F000000000000F0BF33
:1037B000CA380000803800000A380000C237000014
:1037C00070B56B4E2DED040B2DED028B82B0DDF844
:1037D0001CC0DDE905235C422CF000411C4341EA9A
:1037E000D474049D22F00040B44205D86C422C43AE
:1037F00040EAD474B4420BD99DED061B9DED040B39
:1038000002B0BDEC028B04B0BDE8704000F056B9C8
:10381000ACF14054A4F17F641C430BD0022404EAB1
:10382000AC7444EAD27405439FED538B9FED542B47
:1038300007D015E09DED040B51EC100B00F0F8FBE8
:1038400042E0002C11BF012C9DED040B02B0BDEC39
:10385000028B04BF04B070BD022C38D0032C3BD0C7
:103860000B439FED491B9FED4A0B0AD0B14218D183
:10387000B04209D121F0804120F0804007910590AD
:103880000FE0002A15DA10E0434B7B44002C08BF00
:1038900093ED000B0DD0012C10D0022C17D0032C6F
:1038A0001AD0B0421DD1002A03DAB0EE410AF0EE80
:1038B000610A02B0BDEC028B04B070BD93ED000B49
:1038C00051EC100B81F0004141EC100BF1E7B0EE30
:1038D000480AF0EE680AECE7B0EE420AF0EE620A3F
:1038E000E7E7401A00153C28C8BF8DED000B19DC36
:1038F000BCF1000FBEBF10F13C0F9FED290B8DED09
:10390000000B0FDB9DED060B53EC102B9DED040B14
:1039100051EC100BFCF7FCFD01F090F800F088FB77
:10392000CDE90001002C08BF9DED000BC1D0012C9A
:1039300010D0022C9FED1C0B53EC102B9DED000BB7
:1039400051EC100B0DD0FCF76BFD53EC182BFCF772
:1039500067FDB9E7019880F0004001909DED000BF4
:10396000A7E7FCF75DFD53EC182BFCF75CFDABE71C
:103970000000F07F00000000182D4454FB21094096
:10398000182D4454FB2109C0182D4454FB21F9BFC4
:10399000182D4454FB21F93FF236000000000000CE
:1039A0000000000000000000075C143326A6A13CC4
:1039B00070B504462DED028B4D1E00EBC500B0EE38
:1039C000408AF0EE608A90ED000B35F0060017D0CB
:1039D00053EC182B51EC100BFCF728FD41EC100BAD
:1039E0006D1E04EBC50090ED001B51EC100B53EC69
:1039F000112BFCF774FC41EC100B35F00600E7D1FD
:103A0000022D36D0042D1CD0062D1CBFBDEC028B20
:103A100070BD53EC182B51EC100BFCF707FD94ED27
:103A20000A1B53EC112BFCF75AFC53EC182BFCF738
:103A3000FDFC94ED081B53EC112BFCF750FC41EC02
:103A4000100B53EC182B51EC100BFCF7EFFC94ED22
:103A5000061B53EC112BFCF742FC53EC182BFCF724
:103A6000E5FC94ED040B53EC102BFCF738FC41EC17
:103A7000100B53EC182B51EC100BFCF7D7FC94ED0A
:103A8000021B53EC112BFCF72AFC53EC182BFCF710
:103A9000CDFC94ED001B53EC112BFCF720FCBDEC8E
:103AA000028B41EC100B70BD10B553EC102B51EC98
:103AB000100BFCF714FC41EC100B10BD10B553ECCF
:103AC000112B51EC100BFCF70AFC41EC100B10BD54
:103AD0009FED050B10B553EC102B51EC100BFCF7C0
:103AE00017FD41EC100B10BD0000000000000000AD
:103AF0009FED050B10B553EC102B51EC100BFCF7A0
:103B000095FC41EC100B10BD0000000000000010FF
:103B100002E008C8121F08C1002AFAD17047704796
:103B2000002001E001C1121F002AFBD170470000F4
:103B30000149086070470000AC0000202DE9FF4FEC
:103B40008DB00F460546002606E025280BD0DDE99E
:103B50000F1290476D1C761C28780028F5D111B003
:103B60003046BDE8F08F0024A246A1460122EC4970
:103B700000E0044315F8013F203B02FA03F008423D
:103B8000F7D128782A2810D06FF02F022878A0F1DA
:103B90003001092914D80AEB8A0102EB410144F0F3
:103BA000020400EB010A6D1CF0E701CF5FEA000A96
:103BB00003D544F40054CAF1000A44F002046D1C19
:103BC00028782E2817D115F8010F44F004042A286C
:103BD0000ED06FF02F022878A0F1300109290AD801
:103BE00009EB890102EB410100EB01096D1CF2E7D1
:103BF00057F8049B6D1C28786C280FD006DC4C28E5
:103C000017D068280DD06A2814D104E0742810D089
:103C10007A280FD10DE044F400140AE044F4801433
:103C200001E044F440146978814202D104F5801423
:103C30006D1C6D1C2A786E2A1FD00CDC632A31D0D3
:103C400004DC002A8BD0582A11D1A3E0642A68D062
:103C5000692A0CD165E0732A2ED004DC6F2A73D058
:103C6000702A04D19BE0752A6FD0782A6ED0104656
:103C7000DDE90F129047761C50E1C4F30250022890
:103C800006D0032809D0042801CF09D0066045E1F9
:103C900001CFF117C0E9006140E101CF06803DE1AD
:103CA00006703BE117F8040B8DF8000000208DF83A
:103CB0000100EB46012003E057F804BB4FF0FF3052
:103CC00061074FF0000102D40DE008F101018846C0
:103CD00049450FDA8045F8DB1BF808100029F4D1BC
:103CE00008E008F1010188468142FADB1BF8081060
:103CF0000029F6D1DDE90F23AAEB08008146214611
:103D000000F036F9304400EB080604E0DDE90F125C
:103D10001BF8010B9047B8F10108F7D2214648463D
:103D2000F7E00A21C4F302534FF0000B0891022B75
:103D300004D001CFC117032B09D00AE0FF1D27F0E3
:103D40000707F7E8020108E032E01FE020E000B2D8
:103D5000C117042B01D140B2C117031E71F100033A
:103D600007DA4FF0000CD0EB0C006CEB01012D23B7
:103D700002E0230504D52B238DF82430012303E032
:103D8000E30701D02023F7E7984658E00A2110E026
:103D900010210EE010204FF0000B08900CE01021D5
:103DA0004FF0000B44F004044FF00809089103E0C1
:103DB00008214FF0000B0891C4F30253022B04D0EA
:103DC00001CF0021032B06D006E0FF1D27F00707D7
:103DD000F7E8020103E080B2042B00D1C0B24FF03B
:103DE000000823072BD5702A07D0DDF820C08CF0FF
:103DF000100C5CEA0B0C05D00EE040238DF824304B
:103E0000012308E050EA010306D030238DF8243066
:103E10008DF8252002239846DDF820C08CF0080C90
:103E20005CEA0B0C0BD150EA010301D1630706D504
:103E300030238DF824304FF00108A9F10109582AE8
:103E400004D038A20B9208AA0A920BE03AA2F9E732
:103E50005B46089AFCF7B4F90B9B9B5C0A9A521ECE
:103E60000A92137050EA0102F2D10A98ADEB0000F9
:103E700000F1200B600702D524F4803401E04FF0FC
:103E80000109D94502DDA9EB0B0000E0002000EBA1
:103E90000B0141440890AAEB010AE00306D4DDE9D6
:103EA0000F232146504600F063F806444FF0000906
:103EB00008E009A911F80900DDE90F12904709F19E
:103EC0000109761CC145F4DBE0030CD5DDE90F23C5
:103ED0002146504600F04CF8064404E0DDE90F129C
:103EE00030209047761C0899481E08900029F5DC80
:103EF00008E00A980A990078491C0A91DDE90F1236
:103F00009047761CBBF10001ABF1010BF1DC2146BF
:103F10005046DDE90F2300F019F806446D1C1BE63E
:103F2000092801003031323334353637383961628F
:103F30006364656600000000303132333435363753
:103F40003839414243444546000000002DE9F04124
:103F5000044600251E461746880404D405E0394669
:103F60002020B0476D1C641EF9D52846BDE8F081BD
:103F70002DE9F041044600251E469046C80301D5B0
:103F8000302700E02027880404D505E04146384664
:103F9000B0476D1C641EF9D52846BDE8F0810000CD
:103FA000FEB506460D460024684600F05FFD00227F
:103FB0009FED1B1A6B46012156F8227055F822001E
:103FC000381A00D5404200EE100A03EB8200B8EE2A
:103FD000C00AD0ED000A20EE010AF5EEC00AF1EEAB
:103FE00010FA0DD0C0EE201AB7EE000A0D4F31EED8
:103FF000C00AB0EEC00A10EE100AB84207DC09E0B1
:1040000010EE100A084F3844084FB84202D301FAA4
:1040100002F00443521C032ACEDB2046FEBD000002
:1040200000008037295C0F3E666666C19A99D90008
:1040300010B541EC100BFFF757FA51EC100B10BD07
:1040400010B504462DED028BB0EE408A10EE900ABA
:10405000FCF7DEFA9FED101B53EC112BFCF758FA1E
:10406000FCF7E9FA01EE904ADFED0D0A00EE100AC6
:10407000F8EEE11AB1EE0C1A0A4878EE611AC0EDBA
:10408000161A60EEA10ABDEC028B40EE010ABDEEED
:10409000E00A10EE100A10BD66666666666630407D
:1040A0000000A0420000002042F6DF6303E0194652
:1040B000491E89B2FCD2401E80B2F8D2704703E09C
:1040C0000B21491E89B2FCD2401EF9D2704708B5B7
:1040D00060B120208DF8000028208DF801003020EC
:1040E0008DF8020038208DF8030004E0A32204219B
:1040F0006846FCF7C7F86A46042140F69E2001F0A6
:1041000037FF01F0F5FB08BD3EB5044602208DF8EF
:104110000000CA208DF80100E3208DF8020009207C
:104120008DF803006A460421682001F021FFA320D6
:104130008DF80000610609D5C0218DF80110C82155
:104140008DF80210C2218DF8031005E08DF80100F2
:104150008DF802008DF8030014F4C07F09D0C4214B
:104160008DF80410CC218DF80510C6218DF80610AD
:1041700005E08DF804008DF805008DF806008DF837
:1041800008008DF807008DF809006A460A2140F6FC
:10419000A72001F0EDFEA0074FF0D80503D02020A6
:1041A0008DF8000001E08DF800506A46012140F6CC
:1041B000B62001F0DDFEA00601D5012000E00020C0
:1041C00000F08EF814F4C07F1ED0E0050AD5B220AE
:1041D0008DF800008B208DF80100B6208DF80200CC
:1041E0009B2009E0B0208DF8000080208DF80100B0
:1041F000B4208DF8020090208DF803006A46042157
:1042000040F6A22001F0B4FEE1074FF40B6022D08B
:10421000F8218DF800106A46012101F0A9FEFA216B
:10422000072000F03BFB072000F006FB012000F018
:1042300023FB642000F0E2FB4FF4FA7000F0EEFB89
:10424000C821254800F0C0FA282000F0D5FA0A203D
:1042500000F0E2FA05E08DF800506A46012101F015
:1042600087FEA00703D5D9208DF8000001E08DF866
:1042700000506A46012140F23D7001F079FE60076E
:1042800001D5012000E0002000F048F8E00601D54B
:10429000012000E00020FFF71AFF104D44F0080055
:1042A000688101F025FB0020A873600601D5062077
:1042B000A87314F4C07F02D0A87B801DA87314F0EB
:1042C000140F02D0A87B1030A873A00702D0A87BDF
:1042D000001DA87300203EBD09E3CA0204030020AC
:1042E0000EB54FF4976310B106A107C901E008A20B
:1042F00007CA8DE807006A460921184601F038FE12
:104300000EBD0000B8AAB38DB4980D355D00000055
:10431000B8AAAAAAB088C3C5C700000008B560B192
:10432000C0208DF80000C2208DF80100C4208DF857
:104330000200C6208DF8030004E08B2204216846A9
:10434000FBF7A0FF6A46042140F6982001F010FE1A
:1043500001F0CEFA08BD0000C8234FF48062024984
:1043600040F6F63001F0A6B99C6200082DE9FF4F37
:1043700089B01746DDE9165200244D4E8846814625
:104380002C80A246B07B694601F040FA4FF0FF3B1B
:1043900018B158460DB0BDE8F08F708910F0140FB9
:1043A0003ED0009909BA21F0FF029DF803100A439C
:1043B0003A6001999DF8073009BA21F0FF011943CD
:1043C0007960029B9DF80B401BBA23F0FF03234347
:1043D000BB60039C121424BA24F0FF0C9DF80F401C
:1043E00009144CEA040C1024C7F80CC01B144FEA43
:1043F0002C4712FB02F211FB012113FB03F217FB06
:1044000007221144A1F17061B1F1007F04D901F0DC
:104410006FFAA5F800A0BCE7298841F480712980D3
:104420004206694611D50A19A41D13885BBAA8F87B
:10443000003053885BBAA8F80230928852BAA8F8C4
:1044400004202A8842F008022A8010F4C07F11D08C
:104450000A19A41D13885BBAA9F8003053885BBA07
:10446000A9F80230928852BAA9F804202A8842F0AA
:1044700070022A80800716D00C44E07800F0C00556
:1044800000F03F016078C00706D0C80801F00701BE
:104490003268491C02B190476078000703D5716803
:1044A00009B1A80988470C9800F0E2FD002071E7E7
:1044B000040300202DE9FF41044603A800F0AAFFF1
:1044C000BDF80C00410CC3032F48028902F0030021
:1044D000550754F8200000D54042C2F3C1059606A6
:1044E00054F8255000D56D42C2F38116D20554F818
:1044F000264000D56442A0FB0367C21702FB03728B
:1045000000FB0120820042EA9670A5FB0367EA17D0
:1045100002FB037205FB0122950045EA9672A4FB9B
:104520000367E51705FB037304FB01318B0043EAC6
:104530009671030E8DF80030030C8DF80130030ADC
:104540008DF802308DF80300100E8DF80400100C69
:104550008DF80500100A8DF80600080E8DF8080089
:10456000080C8DF80900080A8DF80A008DF807205C
:104570008DF80B106A460C214FF4257001F0F8FC01
:1045800004B0BDE8F08100000403002030B504460B
:1045900013A285B007CA8DE807004FF0FF35C82C7D
:1045A00016D8C820B0FBF4F1491E080A8DF80C009B
:1045B0008DF80D1003AA022140F2162001F0D8FC5C
:1045C00030B96A460C2140F6C12001F0D1FC10B18F
:1045D000284605B030BD054884810020F9E7000079
:1045E000FEF2ABC4AAF1DFDFBBAFDFDF04030020C4
:1045F000F8B53049098901F0030250F822404A0712
:1046000000D56442C1F3C1028B0650F8222000D5C8
:104610005242C1F3811350F82330C80500D55B42E4
:10462000254984FB0140850045EA947082FB0142E4
:10463000A40F44EA820483FB0121950F45EA81051A
:10464000010E8DF80010010C8DF80110010A8DF893
:1046500002108DF803006A4604214FF4747001F0D3
:1046600087FC4FF0FF3688B9200E8DF80000200C33
:104670008DF80100200A8DF802008DF803406A468B
:1046800004214FF4757001F073FC08B13046F8BD99
:10469000280E8DF80000280C8DF80100280A8DF8EE
:1046A00002008DF803506A4604214FF4767001F041
:1046B0005FFCF8BD0403002009E3CA022DE9FF41B5
:1046C00004463CA004F00303006802903AA000688E
:1046D00003903AA006683AA0056802A8C15C8DF86C
:1046E0000010C4F3C101425C8DF80120C4F38112B3
:1046F000805C8DF8020003A8C35C8DF80430415C37
:104700008DF80510805C8DF806006A46032140F2A2
:10471000264001F02DFC4FF0FF37E0BB01AA03213A
:1047200040F22A4001F024FCA8BBCDE900656007F7
:104730000BD59DF8000040F001008DF800009DF8B9
:10474000040040F001008DF80400A0060BD59DF890
:10475000010040F001008DF801009DF8050040F0D7
:1047600001008DF80500E0050BD59DF8020040F032
:1047700001008DF802009DF8060040F001008DF860
:1047800006006A4603214FF4886001F0F1FB10B97E
:1047900001AA032100E004E040F2314001F0E8FB0F
:1047A00018B1384604B0BDE8F08106480481002005
:1047B000F8E700004CCD6C000CC92C003656760092
:1047C00026466600040300204FF47A7290FBF2F054
:1047D00008B54843010E8DF80010010C8DF801104A
:1047E000010A8DF802108DF803006A4604214FF487
:1047F000AE7001F0BDFB08BD0521B0FBF1F008B5BE
:10480000010A8DF800108DF801006A4602214FF46C
:10481000AD7001F0ADFB08BD0521B0FBF1F008B5AE
:10482000010A8DF800108DF801006A4602214FF44C
:10483000AC7001F09DFB08BD08B500218DF800109B
:10484000C10702D030218DF80010810705D59DF8F1
:10485000001041F00C018DF80010400705D59DF8BF
:10486000000040F003008DF800006A4601214FF47B
:10487000A47001F07DFB08BD08B560B1042800D923
:104880000420401E8DF800006A46012140F24F10BE
:1048900001F06EFB08BD0120F3E7000070B504468F
:1048A0002DED028B82B040074FF0FF357ED0B1F581
:1048B000C86F7BD800EE101AB8EE400ADFED460A4A
:1048C00001A880EE208A00F087FD9DF804000228F0
:1048D00006D0042810D0082835D0102874D13EE026
:1048E0009FED3E0A28EE000ABCEEC00A10EE100A48
:1048F0009FED3B0A82B20AE09FED3A0A28EE000AD9
:10490000BCEEC00A10EE100A9FED370A82B228EE04
:10491000000A6E46BCEEC00A10EE100A81B2100A00
:104920008DF800008DF80120080A8DF802008DF83E
:104930000310E00726D0324602214FF4EA7001F05E
:1049400017FB98BB17E09FED290A28EE000ABCEE82
:10495000C00A10EE100A9FED260A82B2D7E79FED3B
:10496000250A28EE000ABCEEC00A10EE100A9FEDE0
:10497000220A82B2CBE7B21C02214FF4927001F0FE
:10498000F7FA98B9A0070DD56A4602214FF4EC70EA
:1049900001F0EEFA50B9B21C02214FF4947001F00C
:1049A000E7FA18B9600714D56A4600E00CE0022166
:1049B0004FF4EE7001F0DCFA30B9B21C02214FF472
:1049C000967001F0D5FA20B1284602B0BDEC028BFA
:1049D00070BD0020F9E70000000048430000804659
:1049E00000004046000000460000C0450000804531
:1049F00000004045000000450000C0440521B0FB18
:104A0000F1F008B5010A8DF800108DF801006A4632
:104A100002214FF4EF7001F0ABFA08BD0521B0FBA5
:104A2000F1F008B5010A8DF800108DF801006A4612
:104A300002214FF4ED7001F09BFA08BD82B0CDE980
:104A4000000121F0004001909DED000B02B051ECFF
:104A5000100B704704490A685206FCD5024AC1B2DD
:104A6000121D116070470000004800401FB5044649
:104A7000274802AB042240680D210078FDF7A4FD11
:104A800010B1072004B010BD9DF808101C2000EAEA
:104A9000D1029DF80B10DFED1F0AC1F301131A4379
:104AA0008DF800209DF80920C1F3810300EAD202AD
:104AB0001A438DF801209DF80A2001F0030100EA55
:104AC000D20008439FED141A9FED140A8DF80200DE
:104AD00000216A46505C002804EB810002D080ED82
:104AE000001A09E0C0ED000A0CE000BFD0ED001A8A
:104AF00061EE801AC0ED001A535C5B1E13F0FF03D9
:104B00005354F3D1491CC9B20329E3D30020B9E7B8
:104B100070000020000000007B14AE3E1D5A843F50
:104B20002DE9FE4F05460120C14E8DF800004FF0E3
:104B300000088DF8018030680C461746817C70684B
:104B40006B4602220078FDF7CCFD4FF0FF3A0028BB
:104B50007AD1C820FFF7A8FA8DF8008030686B463C
:104B60000122C17B70680078FDF7BBFD0028EFD102
:104B700030686B460122417970680078FDF7B1FD1D
:104B80000028E5D130686B460122817C706800788E
:104B9000FDF7A7FD0028DBD130686B460122C17DFF
:104BA00070680078FDF79DFD0028D1D130686B4614
:104BB0000122017970680078FDF793FD0028C7D1C4
:104BC0004FF00C098DF8009030686B460122017996
:104BD00070680078FDF785FD002835D10F20FFF7BC
:104BE00063FAB06A6B460122407A8DF800003068A3
:104BF000817870680078FDF774FD002824D1B06AD0
:104C00006B460122007A8DF80000306841787068A8
:104C10000078FDF766FD002873D1B06A807A0FB185
:104C200040F0E0008DF8000030686B460122817989
:104C300070680078FDF755FD002862D12FB1B06A89
:104C4000C07A40F0E00001E04AE018208DF8000052
:104C500030686B460122C17970680078FDF741FD2C
:104C6000F0BB17B1C820FFF71FFA40208DF80000F5
:104C700030686B460122017970680078FDF731FDDC
:104C800070BB78208DF8000030686B4601224179B6
:104C900070680078FDF725FD10BB3220FFF704FA9D
:104CA0008DF80080306847466B4641797068012274
:104CB0000078FDF716FD98B931687068B046897ABA
:104CC00000786B460222FDF77FFC48B9BDF8000072
:104CD000AF6040BAB0FBF9F06F60C6B22F6000E081
:104CE0000FE0A76067602760002739E0D8F8001060
:104CF000D8F804006B46C97A00780C22FDF764FCF2
:104D000010B15046BDE8FE8FBDF80000236840BAE0
:104D100002B2BDF80200BDF804101A44226040BA85
:104D2000626800B21044606049BAA06809B20844E1
:104D3000A060BDF806002B6840BA02B2BDF80800BA
:104D40001A4440BA01B2BDF80A002A606A6840BA43
:104D500011446960A96800B208447F1CFFB2A860D2
:104D6000B742C3D328688322C117090441EA10411E
:104D700000040023FBF755FA32460023FBF751FAF3
:104D8000286068688322C117090441EA10410004C1
:104D90000023FBF746FA32460023FBF742FA68602D
:104DA000A8688322C117090441EA104100040023C6
:104DB000FBF737FA32460023FBF733FAA860206886
:104DC0004FF40065C117090441EA104100042A4666
:104DD0000023FBF726FA32460023FBF722FA206075
:104DE00060682A46C117090441EA10410004002303
:104DF000FBF717FA32460023FBF713FA6060A0684E
:104E00002A46C117090441EA104100040023FBF7B8
:104E100008FA32460023FBF704FAA060002802DDFE
:104E2000A0F5803001E000F58030A060002069E747
:104E300070000020F8B506462E480D460024406854
:104E40006B46032200780D21FDF7BEFB08B1072059
:104E5000F8BD9DF80000002200F01F008DF8000052
:104E60009DF801009FED241A00F01F008DF801004D
:104E70009DF802006B4600F01F008DF80200012132
:104E800056F8220055F82270C01B00D5404200EEB3
:104E9000100A985CB8EEC00A60EE010AD0B1B3EE19
:104EA000090ADFED161A01E020EE210AC0B2401E09
:104EB00010F0FF009854F7D1C0EE801AB7EE000A48
:104EC0000F4F31EEC00AB0EEC00A10EE100AB84221
:104ED00007DC09E010EE900A0A4F3844B0F1D97FA0
:104EE00002D901FA02F00443521C032AC8DB20460F
:104EF000F8BD0000700000200000803754E3853FBB
:104F0000295C0F3E0000E0BE00B5024600F00DF83F
:104F10000346D01C00F009F843EAC003901D00F0DE
:104F200004F843EA801080B200BD90F90010002917
:104F300002DD4FF00000704702DA4FF004007047C6
:104F400090F90110002902DD4FF00100704702DAEC
:104F50004FF00500704790F90200002802DD4FF085
:104F60000200704702DA4FF0060070474FF007006A
:104F700070470000FBF72AFEFDF7BCFDFDF7DAFBEA
:104F8000FDF72EFCFDF7AAFCFDF742FD344833493E
:104F90000C2201604FF4E131416000218160C16069
:104FA000C0E904128161C161FCF7A6FF08B172B6C5
:104FB000FEE7FDF763FDFDF7C5FCFDF7EFF94FF4E4
:104FC000165001F0A7F8FDF707FAFDF797FA01462A
:104FD00024A0FEF7A1F800F029F94FF4FA70FBF7CE
:104FE000CBFC00212148FCF759FD04211F48FCF7A8
:104FF00055FD08211D48FCF751FD0C211B48FCF70D
:105000004DFD174800219038FCF760FB144804213F
:105010009038FCF75BFB124800214838FCF756FB40
:105020000F4804214838FCF751FB10484830FCF782
:10503000EDF90E4800219030FCF730FD0B480421BB
:105040009030FCF72BFD094808219030FCF726FD35
:1050500006480C219030FCF721FDFEE700100140CE
:10506000C002002025640D0A000000005801002045
:10507000704700002DE9F041124C20F0010100259D
:1050800094F8240010B10020BDE8F081A07A4FF020
:10509000FF3668B10840277C2074884200D035462E
:1050A00041B1012000F0D2FF00F022FC38B127749A
:1050B0003046E9E7207D00B1012000F0C7FF284617
:1050C000E2E700007000002070B50D462DED0C8B5E
:1050D0008EB006460CA902A81446F7EE00BACDE938
:1050E00000010BAB03AA09A907A8FFF73FF920B1FC
:1050F00001200EB0BDEC0C8B70BDBDF80800C005E2
:105100007ED59DED030AF8EEC00A9FED450AB0EE8C
:1051100000CA60EE809ADDED040AF8EEE00A69EE5E
:105120008CCA20EE808ADDED050AF8EEE00A60EE1A
:10513000808ADDED060AF8EEE00A20EE809AB8EEED
:10514000000A28EE00BA2BEE090A0CEEA80A10EEAF
:10515000100AFBF75DFA41EC100BFEF715F89FED16
:1051600031AB51EC100B53EC1A2BFBF75FF9FBF74B
:1051700062FA2BEE080A28EE8CDA30600DEE680A2F
:1051800030EE2B0A10EE100AFBF742FA2DEE090A58
:1051900041EC1B0B0CEE880A10EE100AFBF738FAF4
:1051A00041EC100BB0EE4B1AF0EE6B1AFEF708FB59
:1051B00053EC1A2B51EC100BFBF738F9FBF73BFAC9
:1051C00029EEA90A286008EE080A08EEE80A09EEA6
:1051D000490A10EE100AFBF71BFA28EE280A41ECE8
:1051E0001B0B09EE890A20EE0C0A10EE100AFBF7E1
:1051F0000FFA41EC100BB0EE4B1AF0EE6B1A00E018
:105200000CE0FEF7DDFA53EC1A2B51EC100BFBF718
:105210000DF9FBF710FA206000206AE7022068E72A
:10522000000080306666666666A64C4010B5FCF7E6
:105230007BFF00F07BF920B134A0FDF76DFF0A2061
:1052400010BD782000F038FE10F0FF0F01D00120D3
:1052500010BD35A0FDF760FF7820FFF70BFF10F0C1
:10526000FF0F01D0022010BD34A0FDF755FFC8206C
:1052700000F0E2FD10F0FF0F01D0032010BD33A0BD
:10528000FDF74AFFFFF768F810F0FF0F01D0042088
:1052900010BD33A0FDF740FF3648FFF735FEFFF79E
:1052A0000DFA10F0FF0F01D0052010BD32A0FDF760
:1052B00033FF40F27310FEF727FF10F0FF0F01D00D
:1052C000062010BD32A0FDF727FFC820FFF75EF9CA
:1052D00010F0FF0F01D0072010BD32A0FDF71CFF1A
:1052E00000F070FE08B1082010BD34A0FDF714FFD7
:1052F000012000F0C7FC10F0FF0F01D0092010BD05
:1053000031A0FDF709FF002010BD00006D70755F32
:10531000696E69742829213D302CB3F5CABCBBAF36
:10532000CAA7B0DC0D0A0000B4ABB8D0C6F7C9E814
:10533000D6C3B3C9B9A60D0A000000004649464FBE
:10534000C9E8D6C3B3C9B9A60D0A0000B2C9D1F9DC
:10535000C2CAC9E8D6C3B3C9B9A60D0A0000000085
:10536000646D70B9CCBCFEC9E8D6C3B3C9B9A60D8B
:105370000A0000009C000020CDD3C2DDD2C7B7BD1B
:10538000CFF2C9E8D6C3B3C9B9A60D0A0000000020
:10539000646D70B9A6C4DCC9E8D6C3B3C9B9A60D9B
:1053A0000A000000444D50CAE4B3F6CBD9C2CAC9C2
:1053B000E8D6C3B3C9B9A60D0A000000D7D4BCEC27
:1053C000CDA8B9FD0D0A0000444D50CAB9C4DCB3E4
:1053D000C9B9A60D0A0000000D494A7A42B1012A56
:1053E00008D0022A0FD0032A0FD04FF0FF307047A9
:1053F000022200E004220270C97C11B11106C90D1D
:105400000170002070470822F5E71022F3E7000042
:10541000700000200F494A7A42B1012A09D0022ABD
:1054200011D0032A12D04FF0FF3070474FF4804262
:1054300001E041F69C720280C97C11B1C2F34E01B9
:105440000180002070474FF48052F4E74FF400626F
:10545000F1E70000700000200B49097A39B10129F9
:1054600007D002290AD003290BD0002103E0FA213A
:1054700001E04FF4FA710180002070474FF47A7117
:10548000F9E74FF4FA61F6E7700000200D49097A58
:1054900041B1012909D002290DD003290ED04FF0C6
:1054A000FF3070479FED080A01E09FED080A80ED8C
:1054B000000A002070479FED060AF8E79FED050AF5
:1054C000F5E7000070000020000003430000834265
:1054D00033330342333383410C49C97A072913D24A
:1054E000DFE801F01204060A0C0E1000BC2100E0F7
:1054F00062210180002070472A21FAE71421F8E791
:105500000A21F6E70521F4E70021F2E77000002008
:10551000054991F8242012B14FF0FF307047C98936
:105520000180002070470000700000202DE9FC4140
:105530004C4C80208DF8000020686B460122817C55
:1055400060680078FDF7CDF84FF0FF37002832D1C2
:105550006420FEF7A9FD00258DF8005020686B46F9
:105560000122817C60680078FDF7BBF8002870D1CB
:1055700020686B460622817D60680078FDF724F87C
:10558000002866D19DF805009DF80310C007400F64
:1055900001F0010140EA41019DF801004FF00106D0
:1055A00000F00100014309D0012905D0022915D0DE
:1055B0002DA0FDF7B1FD4CE0E67410E020686B46CD
:1055C0000122C17860680078FCF7FEFF40BB9DF8BF
:1055D000000010F00F0020D0042822D0E574FF2036
:1055E00004F80A0F4FF6FF7104F8020C04F8010CDE
:1055F0006070A180A0712072A67026766576E57233
:10560000A572E56025616561A576E576A5834FF411
:10561000FA6000F073FB18B907E01D48FDF77CFD48
:1056200017E01CA0FDF778FDC6E7022000F088FA1D
:1056300078B92A2000F0CAFB58B9322000F0FCFBF0
:1056400038B90020FFF716FD18B9002000F0ACFAB9
:1056500010B13846BDE8FC81002000F02DFC002090
:10566000F8E7000070000020556E737570706F725F
:1056700074656420736F6674776172652070726FF1
:1056800064756374207265762025642E0A0000001C
:10569000886F000848616C662073656E7369746971
:1056A00076697479207061727420666F756E642EED
:1056B0000A0000002DE9FF4FDFF89480064685B010
:1056C00098F8250015460F464FF0FF39B0BBAFB331
:1056D000002420E0301B102800DD102080B283461B
:1056E0003A1901469246204600F042FC30BB6A4619
:1056F0005946204600F0D2F800BB50465A4669464B
:10570000FAF7E0FD20B16FF0010009B0BDE8F08FBD
:1057100004EB0B0084B2B442DCD3280A8DF81000ED
:105720008DF81150D8F80000444604AB817ED8F8BB
:10573000040002220078FCF7D4FF08B14846E4E7F1
:10574000012084F825000898E0840020DDE70000AF
:10575000700000202DE9F84305464FF0FF39282856
:1057600044D80727284C00267DB1012000F0FCFA20
:1057700020208DF800004FF00108012D17D0052DD5
:1057800018D88DF8018005201FE0002000F0ECFA09
:105790008DF800608DF8017020686B460222817CD4
:1057A00060680078FCF79DFF00BB267529E08DF846
:1057B0000160E8E7142D04D802208DF801000A20CA
:1057C00003E003208DF80100142000F0FFFA9DF89B
:1057D00001006B4607EB80108DF801002068022263
:1057E000817C60680078FCF77CFF10B14846BDE81A
:1057F000F8830820A072267384F814800020FFF735
:1058000039FC0020F3E70000700000202DE9F84388
:10581000214C0646174694F8240089464FF0FF387D
:1058200090B3A07A80B320686B460222817A6068C8
:105830000078FCF7C9FE38BBBDF8000045BAB54298
:1058400002D2002038701FE060684188B5EB510F2C
:1058500011D9216800786B46497C0122FCF7B4FE1F
:1058600090B99DF80000C00605D500F041F86FF032
:105870000100BDE8F8832068F2B24B46C17A606847
:105880000078FCF7A1FE08B14046F2E7B5FBF6F060
:10589000401E38700020ECE770000020F8B51600BC
:1058A0000D464FF0FF371FD0104CA17AE1B1010A2D
:1058B0008DF80010C0B28DF801004119606842896E
:1058C000914211D8216800786B46097E0222FCF7CC
:1058D00008FF48B92068EAB23346417D6068007825
:1058E000FCF772FE002800D03846F8BD700000209A
:1058F000F8B5564C4FF0FF36A07A00287DD0002531
:105900008DF8005020686B460122C17B60680078EA
:10591000FCF7E7FE002870D120686B460122417930
:1059200060680078FCF7DDFE002866D120686B46D1
:105930000122017960680078FCF7D3FE00285CD171
:1059400094F82400E0B30C208DF8000020686B462A
:105950000122017960680078FCF7C3FE002872D14B
:105960003220FEF7A1FBC0208DF80000A07AC0070E
:1059700002D0E0208DF8000020686B4601220179FA
:1059800060680078FCF7ADFE00285CD1607C18B13F
:1059900002208DF8000001E08DF8005020686B4671
:1059A0000122C17B60680078FCF79BFE28BB8DF864
:1059B000005020686B4601224179606800783EE023
:1059C000FFE704208DF8000020686B460122017972
:1059D00060680078FCF785FE78B9A07C90B9A07A61
:1059E000C0070FD05FF060008DF8000020686B46A4
:1059F000012201796068007800E024E0FCF771FE84
:105A000008BB01E04020EFE73220FEF74DFB607C51
:105A100018B101208DF8000001E08DF800502068D9
:105A20006B460122C17B60680078FCF75AFE50B9D2
:105A30002068064B01224179606810330078FCF73A
:105A400050FE002800D03046F8BD00007000002055
:105A50002DE9F047394C82468AB094F824000F466D
:105A600020B1002000F00EF9012600E0002607A872
:105A7000FFF7F2FC06A8FFF7AFFC09A8FFF72CFD23
:105A800008A8FFF745FD94F80A9094F810800025C7
:105A9000002239465046FFF743F810B16D1C022D25
:105AA000F6DB022D1AD00025012203A96846FFF774
:105AB00037F810B16D1C022DF6DB022D0ED003A9B4
:105AC0003846FEF76DFAC7B269465046FFF7B2F99D
:105AD00010F0FF0F4FF0000502D002E0002503E0B8
